:1000000014C02CC02BC02AC029C028C027C0A7C13B
:1000100025C024C023C022C021C020C01FC01EC0D4
:100020001DC01CC01BC054583A0011241FBECFED88
:10003000CDBF10E0A0E6B0E0E8EFF4E002C005902C
:100040000D92A236B107D9F710E0A2E6B0E001C0E8
:100050001D92AB3AB107E1F7BED14CC2D1CF9B01A3
:10006000AC0160E078E087E090E022D2C901DA01DB
:100070000197A109B109292F3A2F4B2F552722B9F2
:1000800089B988E98AB986E083B908955D9BFECF76
:100090008CB90895282F5D9BFECF822F64E6FCD19A
:1000A00080638CB95D9BFECF822F6AE0F5D1F4D1DD
:1000B00090639CB95D9BFECF822F6AE0EDD1906387
:1000C0009CB95D9BFECF8CE28CB908955F9BFECFFF
:1000D0008CB1089501C08CB15F99FDCF0895DF9375
:1000E000CF9300D0CDB7DEB78AE089838DE08A83D5
:1000F000FE0131969E012D5F3F4F80815D9BFECFBB
:100100008CB93196E217F307C1F70F900F90CF919A
:10011000DF91089585E08EBD8FED93EE9DBD8CBD82
:1001200080E889BF089587B3806C87BB8A9AC59A97
:10013000929A8DB188618DB9089582B312BA0895EB
:10014000929A089580E48EB980E0689A689A8F5FE9
:100150008830D9F708958FB9F5DF8FB1089592B33C
:1001600012BA8FB9EFDF8FB1929A08951F93162FAD
:1001700092B312BA8FB9E6DF8FB11FB9E3DF8FB147
:10018000929A1F91089592B312BA8FB9DBDF8FB1A3
:100190001FB8D8DF8FB1929A0895FF920F931F93E3
:1001A000CF93DF93182F092FF62E82B312BA8FE761
:1001B0008FB9C8DF8FB1212F302FC901EC0110E0BA
:1001C00005C089918FB9BEDF8FB11F5F1F15C8F3BE
:1001D000929ADF91CF911F910F91FF900895FF9216
:1001E0000F931F93CF93DF93182F092FF62E82B30F
:1001F00012BA8FEF8FB9A6DF8FB1212F302FC9012F
:10020000EC0110E005C01FB89DDF8FB189931F5F1F
:100210001F15C8F3929ADF91CF911F910F91FF9014
:10022000089583E067E0A2DF8EE36EEF9FDF87E053
:1002300068E09CDF88E064E099DF86E062E296DFB8
:1002400082E066E093DF80E062E090DF8BE06BE0CD
:100250008DDF8CE060E08ADF8DE06DE587DF8EE08A
:1002600063E984DF8FE061EB81DF80E16BE77EDFB4
:1002700081E163E87BDF82E163E878DF83E162E2CA
:1002800075DF84E168EF72DF8AE063E56FDF85E1A7
:1002900064E46CDF81E266E569DF82E260E166DFEB
:1002A00087E163E363DF88E168E160DF89E166E1BC
:1002B0005DDF8BE163E45ADF8CE160E457DF8DE1C1
:1002C00061E954DF83E269EA51DF84E26AE04EDFEC
:1002D00085E260E04BDF86E261E148DF89E269E5C3
:1002E00045DF8CE268E842DF8DE261E33FDF8EE2CA
:1002F0006BE03CDF08951F93CF93DF93EC01162F43
:1003000086E32DDF8AE32BDF84E329DFB39BFECF77
:10031000B399FECF84E323DFCE01612F60DF81E05C
:10032000DF91CF911F9108951F93CF93DF93EC013D
:10033000162F86E314DF8BE312DF81E310DF85E302
:100340000EDFB399FECFCE01612F27DF85E307DFF4
:10035000B39BFECF81E0DF91CF911F9108951F9253
:100360000F920FB60F9211242F933F934F935F93E9
:100370006F937F938F939F93EF93FF9340916200CE
:10038000209165003CB1842F90E08170907062E212
:1003900070E070D0FC01E20FF11DE959FF4F30838E
:1003A0002F5F20936500223238F010926500109282
:1003B00060004F5F40936200FF91EF919F918F919A
:1003C0007F916F915F914F913F912F910F900FBE51
:1003D0000F901F9018951F93A6DE60E074E883E0ED
:1003E00090E03DDE1EDF86E3BADE8AE3B8DE84E31A
:1003F000B6DE20E030E048EB50E00AC0FA01319769
:10040000F1F70197D9F72F5F3F4F2530310519F0EC
:1004100080E197E2F3CF789411E080916000882327
:10042000E1F71FC086E39BDE8BE399DE81E397DE75
:1004300085E395DEB399FECF8091630090E08170F3
:10044000907062E270E016D089599F4F62E2A5DE9B
:10045000B39BFECFB399FECF809163008F5F8093F3
:10046000630090916200809163009817D9F6109311
:100470006000D3CF5527002480FF02C0060E571F0F
:10048000660F771F6115710521F096958795009786
:1004900099F7952F802D0895991B79E004C0991F35
:1004A000961708F0961B881F7A95C9F780950895CE
:1004B000A1E21A2EAA1BBB1BFD010DC0AA1FBB1F68
:1004C000EE1FFF1FA217B307E407F50720F0A21BDA
:1004D000B30BE40BF50B661F771F881F991F1A9447
:1004E00069F760957095809590959B01AC01BD0171
:0804F000CF010895F894FFCF3D
:0204F800010100
:00000001FF
